{
    "contractName": "ERC20B",
    "abi": [
        {
            "inputs": [
                {
                    "internalType": "string",
                    "name": "name",
                    "type": "string"
                },
                {
                    "internalType": "string",
                    "name": "symbol",
                    "type": "string"
                }
            ],
            "stateMutability": "nonpayable",
            "type": "constructor"
        },
        {
            "inputs": [],
            "name": "AccessControlBadConfirmation",
            "type": "error"
        },
        {
            "inputs": [
                {
                    "internalType": "address",
                    "name": "account",
                    "type": "address"
                },
                {
                    "internalType": "bytes32",
                    "name": "neededRole",
                    "type": "bytes32"
                }
            ],
            "name": "AccessControlUnauthorizedAccount",
            "type": "error"
        },
        {
            "inputs": [
                {
                    "internalType": "address",
                    "name": "spender",
                    "type": "address"
                },
                {
                    "internalType": "uint256",
                    "name": "allowance",
                    "type": "uint256"
                },
                {
                    "internalType": "uint256",
                    "name": "needed",
                    "type": "uint256"
                }
            ],
            "name": "ERC20InsufficientAllowance",
            "type": "error"
        },
        {
            "inputs": [
                {
                    "internalType": "address",
                    "name": "sender",
                    "type": "address"
                },
                {
                    "internalType": "uint256",
                    "name": "balance",
                    "type": "uint256"
                },
                {
                    "internalType": "uint256",
                    "name": "needed",
                    "type": "uint256"
                }
            ],
            "name": "ERC20InsufficientBalance",
            "type": "error"
        },
        {
            "inputs": [
                {
                    "internalType": "address",
                    "name": "approver",
                    "type": "address"
                }
            ],
            "name": "ERC20InvalidApprover",
            "type": "error"
        },
        {
            "inputs": [
                {
                    "internalType": "address",
                    "name": "receiver",
                    "type": "address"
                }
            ],
            "name": "ERC20InvalidReceiver",
            "type": "error"
        },
        {
            "inputs": [
                {
                    "internalType": "address",
                    "name": "sender",
                    "type": "address"
                }
            ],
            "name": "ERC20InvalidSender",
            "type": "error"
        },
        {
            "inputs": [
                {
                    "internalType": "address",
                    "name": "spender",
                    "type": "address"
                }
            ],
            "name": "ERC20InvalidSpender",
            "type": "error"
        },
        {
            "inputs": [
                {
                    "internalType": "address",
                    "name": "owner",
                    "type": "address"
                }
            ],
            "name": "OwnableInvalidOwner",
            "type": "error"
        },
        {
            "inputs": [
                {
                    "internalType": "address",
                    "name": "account",
                    "type": "address"
                }
            ],
            "name": "OwnableUnauthorizedAccount",
            "type": "error"
        },
        {
            "anonymous": false,
            "inputs": [
                {
                    "indexed": false,
                    "internalType": "address",
                    "name": "to",
                    "type": "address"
                }
            ],
            "name": "AdminGranted",
            "type": "event"
        },
        {
            "anonymous": false,
            "inputs": [
                {
                    "indexed": false,
                    "internalType": "address",
                    "name": "to",
                    "type": "address"
                }
            ],
            "name": "AdminRevoked",
            "type": "event"
        },
        {
            "anonymous": false,
            "inputs": [
                {
                    "indexed": true,
                    "internalType": "address",
                    "name": "owner",
                    "type": "address"
                },
                {
                    "indexed": true,
                    "internalType": "address",
                    "name": "spender",
                    "type": "address"
                },
                {
                    "indexed": false,
                    "internalType": "uint256",
                    "name": "value",
                    "type": "uint256"
                }
            ],
            "name": "Approval",
            "type": "event"
        },
        {
            "anonymous": false,
            "inputs": [
                {
                    "indexed": true,
                    "internalType": "address",
                    "name": "account",
                    "type": "address"
                },
                {
                    "indexed": false,
                    "internalType": "uint256",
                    "name": "amount",
                    "type": "uint256"
                }
            ],
            "name": "BridgeBurn",
            "type": "event"
        },
        {
            "anonymous": false,
            "inputs": [
                {
                    "indexed": true,
                    "internalType": "address",
                    "name": "account",
                    "type": "address"
                },
                {
                    "indexed": false,
                    "internalType": "uint256",
                    "name": "amount",
                    "type": "uint256"
                }
            ],
            "name": "BridgeMint",
            "type": "event"
        },
        {
            "anonymous": false,
            "inputs": [
                {
                    "indexed": true,
                    "internalType": "address",
                    "name": "previousOwner",
                    "type": "address"
                },
                {
                    "indexed": true,
                    "internalType": "address",
                    "name": "newOwner",
                    "type": "address"
                }
            ],
            "name": "OwnershipTransferred",
            "type": "event"
        },
        {
            "anonymous": false,
            "inputs": [
                {
                    "indexed": true,
                    "internalType": "bytes32",
                    "name": "role",
                    "type": "bytes32"
                },
                {
                    "indexed": true,
                    "internalType": "bytes32",
                    "name": "previousAdminRole",
                    "type": "bytes32"
                },
                {
                    "indexed": true,
                    "internalType": "bytes32",
                    "name": "newAdminRole",
                    "type": "bytes32"
                }
            ],
            "name": "RoleAdminChanged",
            "type": "event"
        },
        {
            "anonymous": false,
            "inputs": [
                {
                    "indexed": true,
                    "internalType": "bytes32",
                    "name": "role",
                    "type": "bytes32"
                },
                {
                    "indexed": true,
                    "internalType": "address",
                    "name": "account",
                    "type": "address"
                },
                {
                    "indexed": true,
                    "internalType": "address",
                    "name": "sender",
                    "type": "address"
                }
            ],
            "name": "RoleGranted",
            "type": "event"
        },
        {
            "anonymous": false,
            "inputs": [
                {
                    "indexed": true,
                    "internalType": "bytes32",
                    "name": "role",
                    "type": "bytes32"
                },
                {
                    "indexed": true,
                    "internalType": "address",
                    "name": "account",
                    "type": "address"
                },
                {
                    "indexed": true,
                    "internalType": "address",
                    "name": "sender",
                    "type": "address"
                }
            ],
            "name": "RoleRevoked",
            "type": "event"
        },
        {
            "anonymous": false,
            "inputs": [
                {
                    "indexed": true,
                    "internalType": "address",
                    "name": "from",
                    "type": "address"
                },
                {
                    "indexed": true,
                    "internalType": "address",
                    "name": "to",
                    "type": "address"
                },
                {
                    "indexed": false,
                    "internalType": "uint256",
                    "name": "value",
                    "type": "uint256"
                }
            ],
            "name": "Transfer",
            "type": "event"
        },
        {
            "inputs": [],
            "name": "DEFAULT_ADMIN_ROLE",
            "outputs": [
                {
                    "internalType": "bytes32",
                    "name": "",
                    "type": "bytes32"
                }
            ],
            "stateMutability": "view",
            "type": "function"
        },
        {
            "inputs": [
                {
                    "internalType": "address",
                    "name": "owner",
                    "type": "address"
                },
                {
                    "internalType": "address",
                    "name": "spender",
                    "type": "address"
                }
            ],
            "name": "allowance",
            "outputs": [
                {
                    "internalType": "uint256",
                    "name": "",
                    "type": "uint256"
                }
            ],
            "stateMutability": "view",
            "type": "function"
        },
        {
            "inputs": [
                {
                    "internalType": "address",
                    "name": "spender",
                    "type": "address"
                },
                {
                    "internalType": "uint256",
                    "name": "value",
                    "type": "uint256"
                }
            ],
            "name": "approve",
            "outputs": [
                {
                    "internalType": "bool",
                    "name": "",
                    "type": "bool"
                }
            ],
            "stateMutability": "nonpayable",
            "type": "function"
        },
        {
            "inputs": [
                {
                    "internalType": "address",
                    "name": "account",
                    "type": "address"
                }
            ],
            "name": "balanceOf",
            "outputs": [
                {
                    "internalType": "uint256",
                    "name": "",
                    "type": "uint256"
                }
            ],
            "stateMutability": "view",
            "type": "function"
        },
        {
            "inputs": [
                {
                    "internalType": "address",
                    "name": "account",
                    "type": "address"
                },
                {
                    "internalType": "uint256",
                    "name": "amount",
                    "type": "uint256"
                }
            ],
            "name": "bridgeBurn",
            "outputs": [
                {
                    "internalType": "bool",
                    "name": "",
                    "type": "bool"
                }
            ],
            "stateMutability": "nonpayable",
            "type": "function"
        },
        {
            "inputs": [
                {
                    "internalType": "address",
                    "name": "account",
                    "type": "address"
                },
                {
                    "internalType": "uint256",
                    "name": "amount",
                    "type": "uint256"
                }
            ],
            "name": "bridgeMint",
            "outputs": [
                {
                    "internalType": "bool",
                    "name": "",
                    "type": "bool"
                }
            ],
            "stateMutability": "nonpayable",
            "type": "function"
        },
        {
            "inputs": [],
            "name": "decimals",
            "outputs": [
                {
                    "internalType": "uint8",
                    "name": "",
                    "type": "uint8"
                }
            ],
            "stateMutability": "view",
            "type": "function"
        },
        {
            "inputs": [
                {
                    "internalType": "bytes32",
                    "name": "role",
                    "type": "bytes32"
                }
            ],
            "name": "getRoleAdmin",
            "outputs": [
                {
                    "internalType": "bytes32",
                    "name": "",
                    "type": "bytes32"
                }
            ],
            "stateMutability": "view",
            "type": "function"
        },
        {
            "inputs": [
                {
                    "internalType": "address",
                    "name": "to",
                    "type": "address"
                }
            ],
            "name": "grantAdmin",
            "outputs": [],
            "stateMutability": "nonpayable",
            "type": "function"
        },
        {
            "inputs": [
                {
                    "internalType": "bytes32",
                    "name": "role",
                    "type": "bytes32"
                },
                {
                    "internalType": "address",
                    "name": "account",
                    "type": "address"
                }
            ],
            "name": "grantRole",
            "outputs": [],
            "stateMutability": "nonpayable",
            "type": "function"
        },
        {
            "inputs": [
                {
                    "internalType": "bytes32",
                    "name": "role",
                    "type": "bytes32"
                },
                {
                    "internalType": "address",
                    "name": "account",
                    "type": "address"
                }
            ],
            "name": "hasRole",
            "outputs": [
                {
                    "internalType": "bool",
                    "name": "",
                    "type": "bool"
                }
            ],
            "stateMutability": "view",
            "type": "function"
        },
        {
            "inputs": [],
            "name": "name",
            "outputs": [
                {
                    "internalType": "string",
                    "name": "",
                    "type": "string"
                }
            ],
            "stateMutability": "view",
            "type": "function"
        },
        {
            "inputs": [],
            "name": "owner",
            "outputs": [
                {
                    "internalType": "address",
                    "name": "",
                    "type": "address"
                }
            ],
            "stateMutability": "view",
            "type": "function"
        },
        {
            "inputs": [],
            "name": "renounceOwnership",
            "outputs": [],
            "stateMutability": "nonpayable",
            "type": "function"
        },
        {
            "inputs": [
                {
                    "internalType": "bytes32",
                    "name": "role",
                    "type": "bytes32"
                },
                {
                    "internalType": "address",
                    "name": "callerConfirmation",
                    "type": "address"
                }
            ],
            "name": "renounceRole",
            "outputs": [],
            "stateMutability": "nonpayable",
            "type": "function"
        },
        {
            "inputs": [
                {
                    "internalType": "address",
                    "name": "to",
                    "type": "address"
                }
            ],
            "name": "revokeAdmin",
            "outputs": [],
            "stateMutability": "nonpayable",
            "type": "function"
        },
        {
            "inputs": [
                {
                    "internalType": "bytes32",
                    "name": "role",
                    "type": "bytes32"
                },
                {
                    "internalType": "address",
                    "name": "account",
                    "type": "address"
                }
            ],
            "name": "revokeRole",
            "outputs": [],
            "stateMutability": "nonpayable",
            "type": "function"
        },
        {
            "inputs": [
                {
                    "internalType": "bytes4",
                    "name": "interfaceId",
                    "type": "bytes4"
                }
            ],
            "name": "supportsInterface",
            "outputs": [
                {
                    "internalType": "bool",
                    "name": "",
                    "type": "bool"
                }
            ],
            "stateMutability": "view",
            "type": "function"
        },
        {
            "inputs": [],
            "name": "symbol",
            "outputs": [
                {
                    "internalType": "string",
                    "name": "",
                    "type": "string"
                }
            ],
            "stateMutability": "view",
            "type": "function"
        },
        {
            "inputs": [],
            "name": "totalSupply",
            "outputs": [
                {
                    "internalType": "uint256",
                    "name": "",
                    "type": "uint256"
                }
            ],
            "stateMutability": "view",
            "type": "function"
        },
        {
            "inputs": [
                {
                    "internalType": "address",
                    "name": "to",
                    "type": "address"
                },
                {
                    "internalType": "uint256",
                    "name": "value",
                    "type": "uint256"
                }
            ],
            "name": "transfer",
            "outputs": [
                {
                    "internalType": "bool",
                    "name": "",
                    "type": "bool"
                }
            ],
            "stateMutability": "nonpayable",
            "type": "function"
        },
        {
            "inputs": [
                {
                    "internalType": "address",
                    "name": "from",
                    "type": "address"
                },
                {
                    "internalType": "address",
                    "name": "to",
                    "type": "address"
                },
                {
                    "internalType": "uint256",
                    "name": "value",
                    "type": "uint256"
                }
            ],
            "name": "transferFrom",
            "outputs": [
                {
                    "internalType": "bool",
                    "name": "",
                    "type": "bool"
                }
            ],
            "stateMutability": "nonpayable",
            "type": "function"
        },
        {
            "inputs": [
                {
                    "internalType": "address",
                    "name": "newOwner",
                    "type": "address"
                }
            ],
            "name": "transferOwnership",
            "outputs": [],
            "stateMutability": "nonpayable",
            "type": "function"
        }
    ],
    "bytecode": "608060405234801561000f575f80fd5b5060405161131338038061131383398101604081905261002e916102c0565b338282600361003d83826103a9565b50600461004a82826103a9565b5050506001600160a01b03811661007b57604051631e4fbdf760e01b81525f60048201526024015b60405180910390fd5b61008481610096565b5061008f5f336100e7565b5050610463565b600580546001600160a01b038381166001600160a01b0319831681179093556040519116919082907f8be0079c531659141344cd1fd0a4f28419497f9722a3daafe3b4186f6b6457e0905f90a35050565b5f8281526006602052604090206001015461010181610111565b61010b838361011e565b50505050565b61011b81336101cb565b50565b5f8281526006602090815260408083206001600160a01b038516845290915281205460ff166101c2575f8381526006602090815260408083206001600160a01b03861684529091529020805460ff1916600117905561017a3390565b6001600160a01b0316826001600160a01b0316847f2f8788117e7eff1d82e926ec794901d17c78024a50270940304540a733656f0d60405160405180910390a45060016101c5565b505f5b92915050565b5f8281526006602090815260408083206001600160a01b038516845290915290205460ff1661021f5760405163e2517d3f60e01b81526001600160a01b038216600482015260248101839052604401610072565b5050565b634e487b7160e01b5f52604160045260245ffd5b5f82601f830112610246575f80fd5b81516001600160401b0381111561025f5761025f610223565b604051601f8201601f19908116603f011681016001600160401b038111828210171561028d5761028d610223565b6040528181528382016020018510156102a4575f80fd5b8160208501602083015e5f918101602001919091529392505050565b5f80604083850312156102d1575f80fd5b82516001600160401b038111156102e6575f80fd5b6102f285828601610237565b602085015190935090506001600160401b0381111561030f575f80fd5b61031b85828601610237565b9150509250929050565b600181811c9082168061033957607f821691505b60208210810361035757634e487b7160e01b5f52602260045260245ffd5b50919050565b601f8211156103a457805f5260205f20601f840160051c810160208510156103825750805b601f840160051c820191505b818110156103a1575f815560010161038e565b50505b505050565b81516001600160401b038111156103c2576103c2610223565b6103d6816103d08454610325565b8461035d565b6020601f821160018114610408575f83156103f15750848201515b5f19600385901b1c1916600184901b1784556103a1565b5f84815260208120601f198516915b828110156104375787850151825560209485019460019092019101610417565b508482101561045457868401515f19600387901b60f8161c191681555b50505050600190811b01905550565b610ea3806104705f395ff3fe608060405234801561000f575f80fd5b5060043610610148575f3560e01c806370a08231116100bf57806395d89b411161007957806395d89b41146102c4578063a217fddf146102cc578063a9059cbb146102d3578063d547741f146102e6578063dd62ed3e146102f9578063f2fde38b14610331575f80fd5b806370a0823114610240578063715018a61461026857806374f4f547146102705780638c2a993e146102835780638da5cb5b1461029657806391d14854146102b1575f80fd5b8063248a9ca311610110578063248a9ca3146101c15780632d345670146101e35780632f2ff15d146101f8578063313ce5671461020b57806335bb3e161461021a57806336568abe1461022d575f80fd5b806301ffc9a71461014c57806306fdde0314610174578063095ea7b31461018957806318160ddd1461019c57806323b872dd146101ae575b5f80fd5b61015f61015a366004610c6b565b610344565b60405190151581526020015b60405180910390f35b61017c61037a565b60405161016b9190610c99565b61015f610197366004610ce9565b61040a565b6002545b60405190815260200161016b565b61015f6101bc366004610d11565b610421565b6101a06101cf366004610d4b565b5f9081526006602052604090206001015490565b6101f66101f1366004610d62565b610444565b005b6101f6610206366004610d7b565b6104fd565b6040516012815260200161016b565b6101f6610228366004610d62565b610527565b6101f661023b366004610d7b565b610590565b6101a061024e366004610d62565b6001600160a01b03165f9081526020819052604090205490565b6101f66105c8565b61015f61027e366004610ce9565b6105db565b61015f610291366004610ce9565b610658565b6005546040516001600160a01b03909116815260200161016b565b61015f6102bf366004610d7b565b6106c4565b61017c6106ee565b6101a05f81565b61015f6102e1366004610ce9565b6106fd565b6101f66102f4366004610d7b565b61070a565b6101a0610307366004610da5565b6001600160a01b039182165f90815260016020908152604080832093909416825291909152205490565b6101f661033f366004610d62565b61072e565b5f6001600160e01b03198216637965db0b60e01b148061037457506301ffc9a760e01b6001600160e01b03198316145b92915050565b60606003805461038990610dcd565b80601f01602080910402602001604051908101604052809291908181526020018280546103b590610dcd565b80156104005780601f106103d757610100808354040283529160200191610400565b820191905f5260205f20905b8154815290600101906020018083116103e357829003601f168201915b5050505050905090565b5f3361041781858561076b565b5060019392505050565b5f3361042e858285610778565b6104398585856107ed565b506001949350505050565b61044e5f336106c4565b6104735760405162461bcd60e51b815260040161046a90610e05565b60405180910390fd5b61047d5f826106c4565b6104b35760405162461bcd60e51b81526020600482015260076024820152664f776e61626c6560c81b604482015260640161046a565b6104bd5f8261070a565b6040516001600160a01b03821681527f631ff1c4e1a02c54b480a34b810e03bcee61fe38efcb243930a7f820914923e2906020015b60405180910390a150565b5f828152600660205260409020600101546105178161084a565b6105218383610854565b50505050565b6105315f336106c4565b61054d5760405162461bcd60e51b815260040161046a90610e05565b6105575f826104fd565b6040516001600160a01b03821681527f1c4e23de8d72c94b22992bd4d7b6786b215ba876af214ff63e6a0ca38fc97af4906020016104f2565b6001600160a01b03811633146105b95760405163334bd91960e11b815260040160405180910390fd5b6105c382826108e5565b505050565b6105d0610950565b6105d95f61097d565b565b5f6105e681336106c4565b6106025760405162461bcd60e51b815260040161046a90610e05565b61060c83836109ce565b826001600160a01b03167f9b5b9a05e4726d8bb959f1440e05c6b8109443f2083bc4e386237d76545265538360405161064791815260200190565b60405180910390a250600192915050565b5f61066381336106c4565b61067f5760405162461bcd60e51b815260040161046a90610e05565b6106898383610a06565b826001600160a01b03167f397b33b307fc137878ebfc75b295289ec0ee25a31bb5bf034f33256fe8ea2aa68360405161064791815260200190565b5f9182526006602090815260408084206001600160a01b0393909316845291905290205460ff1690565b60606004805461038990610dcd565b5f336104178185856107ed565b5f828152600660205260409020600101546107248161084a565b61052183836108e5565b610736610950565b6001600160a01b03811661075f57604051631e4fbdf760e01b81525f600482015260240161046a565b6107688161097d565b50565b6105c38383836001610a3a565b6001600160a01b038381165f908152600160209081526040808320938616835292905220545f19811461052157818110156107df57604051637dc7a0d960e11b81526001600160a01b0384166004820152602481018290526044810183905260640161046a565b61052184848484035f610a3a565b6001600160a01b03831661081657604051634b637e8f60e11b81525f600482015260240161046a565b6001600160a01b03821661083f5760405163ec442f0560e01b81525f600482015260240161046a565b6105c3838383610b0c565b6107688133610c32565b5f61085f83836106c4565b6108de575f8381526006602090815260408083206001600160a01b03861684529091529020805460ff191660011790556108963390565b6001600160a01b0316826001600160a01b0316847f2f8788117e7eff1d82e926ec794901d17c78024a50270940304540a733656f0d60405160405180910390a4506001610374565b505f610374565b5f6108f083836106c4565b156108de575f8381526006602090815260408083206001600160a01b0386168085529252808320805460ff1916905551339286917ff6391f5c32d9c69d2a47ea670b442974b53935d1edc7fd64eb21e047a839171b9190a4506001610374565b6005546001600160a01b031633146105d95760405163118cdaa760e01b815233600482015260240161046a565b600580546001600160a01b038381166001600160a01b0319831681179093556040519116919082907f8be0079c531659141344cd1fd0a4f28419497f9722a3daafe3b4186f6b6457e0905f90a35050565b6001600160a01b0382166109f757604051634b637e8f60e11b81525f600482015260240161046a565b610a02825f83610b0c565b5050565b6001600160a01b038216610a2f5760405163ec442f0560e01b81525f600482015260240161046a565b610a025f8383610b0c565b6001600160a01b038416610a635760405163e602df0560e01b81525f600482015260240161046a565b6001600160a01b038316610a8c57604051634a1406b160e11b81525f600482015260240161046a565b6001600160a01b038085165f908152600160209081526040808320938716835292905220829055801561052157826001600160a01b0316846001600160a01b03167f8c5be1e5ebec7d5bd14f71427d1e84f3dd0314c0f7b2291e5b200ac8c7c3b92584604051610afe91815260200190565b60405180910390a350505050565b6001600160a01b038316610b36578060025f828254610b2b9190610e4e565b90915550610ba69050565b6001600160a01b0383165f9081526020819052604090205481811015610b885760405163391434e360e21b81526001600160a01b0385166004820152602481018290526044810183905260640161046a565b6001600160a01b0384165f9081526020819052604090209082900390555b6001600160a01b038216610bc257600280548290039055610be0565b6001600160a01b0382165f9081526020819052604090208054820190555b816001600160a01b0316836001600160a01b03167fddf252ad1be2c89b69c2b068fc378daa952ba7f163c4a11628f55a4df523b3ef83604051610c2591815260200190565b60405180910390a3505050565b610c3c82826106c4565b610a025760405163e2517d3f60e01b81526001600160a01b03821660048201526024810183905260440161046a565b5f60208284031215610c7b575f80fd5b81356001600160e01b031981168114610c92575f80fd5b9392505050565b602081525f82518060208401528060208501604085015e5f604082850101526040601f19601f83011684010191505092915050565b80356001600160a01b0381168114610ce4575f80fd5b919050565b5f8060408385031215610cfa575f80fd5b610d0383610cce565b946020939093013593505050565b5f805f60608486031215610d23575f80fd5b610d2c84610cce565b9250610d3a60208501610cce565b929592945050506040919091013590565b5f60208284031215610d5b575f80fd5b5035919050565b5f60208284031215610d72575f80fd5b610c9282610cce565b5f8060408385031215610d8c575f80fd5b82359150610d9c60208401610cce565b90509250929050565b5f8060408385031215610db6575f80fd5b610dbf83610cce565b9150610d9c60208401610cce565b600181811c90821680610de157607f821691505b602082108103610dff57634e487b7160e01b5f52602260045260245ffd5b50919050565b60208082526029908201527f4f776e61626c653a2063616c6c6572206973206e6f7420746865206f776e65726040820152681037b91030b236b4b760b91b606082015260800190565b8082018082111561037457634e487b7160e01b5f52601160045260245ffdfea26469706673582212208a9044e282962ae84c04dbf3ecb3d085fcd18fb0f7b4493501f5d0bff808a89164736f6c634300081a0033",
    "sourcePath": "e:/work/hanzo-ai/jackson/teleport/teleport/contracts/contracts/ERC20B.sol",
    "compiler": {
        "name": "solc",
        "version": "0.8.26+commit.8a97fa7a"
    },
    "functionHashes": {
        "DEFAULT_ADMIN_ROLE()": "a217fddf",
        "allowance(address,address)": "dd62ed3e",
        "approve(address,uint256)": "095ea7b3",
        "balanceOf(address)": "70a08231",
        "bridgeBurn(address,uint256)": "74f4f547",
        "bridgeMint(address,uint256)": "8c2a993e",
        "decimals()": "313ce567",
        "getRoleAdmin(bytes32)": "248a9ca3",
        "grantAdmin(address)": "35bb3e16",
        "grantRole(bytes32,address)": "2f2ff15d",
        "hasRole(bytes32,address)": "91d14854",
        "name()": "06fdde03",
        "owner()": "8da5cb5b",
        "renounceOwnership()": "715018a6",
        "renounceRole(bytes32,address)": "36568abe",
        "revokeAdmin(address)": "2d345670",
        "revokeRole(bytes32,address)": "d547741f",
        "supportsInterface(bytes4)": "01ffc9a7",
        "symbol()": "95d89b41",
        "totalSupply()": "18160ddd",
        "transfer(address,uint256)": "a9059cbb",
        "transferFrom(address,address,uint256)": "23b872dd",
        "transferOwnership(address)": "f2fde38b"
    },
    "gasEstimates": {
        "creation": {
            "codeDepositCost": "749400",
            "executionCost": "infinite",
            "totalCost": "infinite"
        },
        "external": {
            "DEFAULT_ADMIN_ROLE()": "237",
            "allowance(address,address)": "infinite",
            "approve(address,uint256)": "24765",
            "balanceOf(address)": "2560",
            "bridgeBurn(address,uint256)": "54925",
            "bridgeMint(address,uint256)": "54910",
            "decimals()": "265",
            "getRoleAdmin(bytes32)": "2464",
            "grantAdmin(address)": "infinite",
            "grantRole(bytes32,address)": "infinite",
            "hasRole(bytes32,address)": "2784",
            "name()": "infinite",
            "owner()": "2411",
            "renounceOwnership()": "infinite",
            "renounceRole(bytes32,address)": "29157",
            "revokeAdmin(address)": "infinite",
            "revokeRole(bytes32,address)": "infinite",
            "supportsInterface(bytes4)": "447",
            "symbol()": "infinite",
            "totalSupply()": "2370",
            "transfer(address,uint256)": "51267",
            "transferFrom(address,address,uint256)": "infinite",
            "transferOwnership(address)": "28465"
        }
    }
}